:020000040000FA
:08000000803102288731F02F46
:10000E0008004001E3005F08E5005E08E4004101DE
:10001E00A001A10126286430E1006108CE0060082D
:10002E00E2006208CF0063088131B42180314001C3
:10003E004E084101A00740014F084101A13D40017A
:10004E0064088400650885001200031D2F283028DF
:10005E001228410121084001DF0041012008400122
:10006E00DE0008004001AB006C1C3E283F284728EC
:10007E002B08FC007C08F80024088E31692680319C
:10008E004001A61B4B284C2851282608AA002508FB
:10009E00A9005328A901AA01A701A80167282030A9
:1000AE00F0000030F10040012B08FC007C08F2004B
:1000BE008F312527803101304001A7070030A83D40
:1000CE002808803AFC002A08803A7C02031D712819
:1000DE0029082702031C74287528562840016C181D
:1000EE0079287A2882282B08FC007C08F80024083E
:1000FE008E3169268031400124088D31F125803101
:10010E00400129087007A4002A08713DA5000800C7
:10011E00F20040010D130D127208F0000730F03698
:10012E00890B962870080139F100F10CF10C0E08BC
:10013E0071067F3971068E007208F0000630F036B7
:10014E00890BA62870080139F100F10EF10DF10DA1
:10015E000E087106BF3971068E007208F000053068
:10016E00F036890BB72870080139F100F10EF10D48
:10017E000E087106DF3971068E007208F000043029
:10018E00F036890BC72870080139F100F10E0E0800
:10019E007106EF3971068E000330890BD4280000EA
:1001AE0040010D17000040010D137208F0000330DE
:1001BE00F036890BDF2870080139F100F10CF10CD3
:1001CE000E0871067F3971068E007208F00002303B
:1001DE00F036890BEF2870080139F100F10EF10DA0
:1001EE00F10D0E087106BF3971068E007236013997
:1001FE00F000F00EF00D0E087006DF3970068E005E
:10020E0072080139F000F00E0E087006EF39700614
:10021E008E000330890B1129000040010D170000DC
:10022E0040010D13C43000320032890B1A290032FE
:10023E0000000800F20040010D130D167208F000C8
:10024E000730F036890B282970080139F100F10CBE
:10025E00F10C0E0871067F3971068E007208F000DF
:10026E000630F036890B382970080139F100F10E8D
:10027E00F10DF10D0E087106BF3971068E00720870
:10028E00F0000530F036890B492970080139F1006C
:10029E00F10EF10D0E087106DF3971068E0072082F
:1002AE00F0000430F036890B592970080139F1003D
:1002BE00F10E0E087106EF3971068E000330890BB0
:1002CE006629000040010D17000040010D13720851
:1002DE00F0000330F036890B712970080139F100F6
:1002EE00F10CF10C0E0871067F3971068E00720842
:1002FE00F0000230F036890B812970080139F100C7
:10030E00F10EF10DF10D0E087106BF3971068E005A
:10031E0072360139F000F00EF00D0E087006DF395E
:10032E0070068E0072080139F000F00E0E0870068D
:10033E00EF3970068E000330890BA32900004001AF
:10034E000D17000040010D130000C43000320032C2
:10035E00890BAD290032000008004001DD004E0877
:10036E0086008701403FD000413FD10050088400F5
:10037E00510885001200253A031DC629C7296D2A8A
:10038E004E08860087010130810741310318810A2A
:10039E004101A201A3014001EC01ED01FF30410139
:1003AE00A400FF30A50040014E0886008701403FA3
:1003BE00D000413FD1005008840051088500120042
:1003CE00643A0319EB29EC29FD294E0886008701B2
:1003DE00403FD000413FD1005008840051088500B5
:1003EE001200693A031DFC29FD29382A4E088600A1
:1003FE0087010130810741310318810A4F088600B9
:10040E00870101088400850102308107003FD0007A
:10041E00013FD1005008D5005108D600890D893B07
:10042E008909D700D800D900DA00DB00DC005508B6
:10043E00B0005608B1005708B2005808B30059086A
:10044E00B4005A08B5005B08B6005C08B7005D083A
:10045E0084317C24813140013108CF003008CE0038
:10046E00902A4E0886008701403FD000413FD100C0
:10047E0050088400510885001200253A031D482AB1
:10048E00492A622A4E0886008701013081074131D0
:10049E000318810A2530F0000030F1005D08D0000D
:1004AE005008F2008F312527813101304001CE00F6
:1004BE000030CF00902A4E08860087010130810758
:1004CE0041310318810ACE01CF01902A4E088600D1
:1004DE008701403FD000413FD100500884005108B1
:1004EE0085000008D200D3015208F0005308F10035
:1004FE005D08D4005408F2008F3125278131400168
:10050E004E08860087010130810741310318810AA8
:10051E005C2A0800F2012830860000308700473F31
:10052E00F000F01F9B2A9C2ABD2A4001A809A909A8
:10053E00AA09AB09AC09AD09AE09AF09A80A031D9A
:10054E00BB2AA90A031DBB2AAA0A031DBB2AAB0A92
:10055E00031DBB2AAC0A031DBB2AAD0A031DBB2A11
:10056E00AE0A031DBB2AAF0AF201F20A2030860042
:10057E0000308700473FF000F01FC62AC72AE62A40
:10058E004001A009A109A209A309A409A509A60968
:10059E00A709A00A031DE62AA10A031DE62AA20A3C
:1005AE00031DE62AA30A031DE62AA40A031DE62A52
:1005BE00A50A031DE62AA60A031DE62AA70A40017C
:1005CE0020082104220423042404250426042704DD
:1005DE000319F22AF32A462BF101F10A022BA03558
:1005EE00A10DA20DA30DA40DA50DA60DA70D0130F5
:1005FE00F0007008F107A71F052B062BF62A270817
:10060E002F02031D242B26082E02031D242B250842
:10061E002D02031D242B24082C02031D242B23083A
:10062E002B02031D242B22082A02031D242B210832
:10063E002902031D242B20082802031C272B282BFC
:10064E00382B2008A8022108A93B2208AA3B230820
:10065E00AB3B2408AC3B2508AD3B2608AE3B270838
:10066E00AF3BA736A60CA50CA40CA30CA20CA10C98
:10067E00A00C0130F102031D452B462B062B7208F0
:10068E0003194A2B4B2B692BA809A909AA09AB09F7
:10069E00AC09AD09AE09AF09A80A031D692BA90A59
:1006AE00031D692BAA0A031D692BAB0A031D692BB7
:1006BE00AC0A031D692BAD0A031D692BAE0A031D7F
:1006CE00692BAF0A40012808A0002908A1002A08BA
:1006DE00A2002B08A3002C08A4002D08A5002E08AC
:1006EE00A6002F08A7000800F20120308600003077
:1006FE008700473FF000F01F852B862BA72B40016C
:10070E00A009A109A209A309A409A509A609A70977
:10071E00A00A031DA52BA10A031DA52BA20A031DCA
:10072E00A52BA30A031DA52BA40A031DA52BA50A01
:10073E00031DA52BA60A031DA52BA70AF201F20A7B
:10074E002830860000308700473FF000F01FB02BA6
:10075E00B12BD42B4001A809A909AA09AB09AC09F0
:10076E00AD09AE09AF09A80A031DD02BA90A031DB6
:10077E00D02BAA0A031DD02BAB0A031DD02BAC0A1B
:10078E00031DD02BAD0A031DD02BAE0A031DD02B9B
:10079E00AF0A0130F0007008F206733086000030A8
:1007AE0087000830F00000301E00F00BDB2B4001FC
:1007BE0020082104220423042404250426042704EB
:1007CE000319EA2BEB2B472CF101F10AFA2BA0357A
:1007DE00A10DA20DA30DA40DA50DA60DA70D013003
:1007EE00F0007008F107A71FFD2BFE2BEE2BF33543
:1007FE00F40DF50DF60DF70DF80DF90DFA0D2708A0
:10080E002F02031D242C26082E02031D242C25083E
:10081E002D02031D242C24082C02031D242C230836
:10082E002B02031D242C22082A02031D242C21082E
:10083E002902031D242C20082802031C272C282CF7
:10084E00392C2008A8022108A93B2208AA3B23081C
:10085E00AB3B2408AC3B2508AD3B2608AE3B270836
:10086E00AF3B7314A736A60CA50CA40CA30CA20CBC
:10087E00A10CA00C0130F102031D462C472CFE2BBF
:10088E00720803194B2C4C2C6A2CF309F409F50948
:10089E00F609F709F809F909FA09F30A031D6A2C92
:1008AE00F40A031D6A2CF50A031D6A2CF60A031DB1
:1008BE006A2CF70A031D6A2CF80A031D6A2CF90A22
:1008CE00031D6A2CFA0A73084001A0007408A100E7
:1008DE007508A2007608A3007708A4007808A50082
:1008EE007908A6007A08A70008004001BD0030086C
:1008FE00C4003108C5003208C6003308C7003408EA
:10090E00C8003508C9003608CA003708CB00443085
:10091E00860000308700473FB800B81B972C992CF3
:10092E0001309A2C00304001B900BA013908C200DA
:10093E003A08C300420843040319A62CA72CC52C61
:10094E00C409C509C609C709C809C909CA09CB0915
:10095E00C40A031DC52CC50A031DC52CC60A031DDA
:10096E00C52CC70A031DC52CC80A031DC52CC90AF0
:10097E00031DC52CCA0A031DC52CCB0A4101A51B9C
:10098E00C92CCA2CCF2CFD304001EC05FF30ED05F3
:10099E0041012508803A4001B80080303802031D1D
:1009AE00DB2C0130410124020318DE2CDF2CE52C58
:1009BE0001304001BE000030BF00ED2C4101250882
:1009CE004001BF00410124084001BE00410123083F
:1009DE004001C100410122084001C0004208430409
:1009EE00031DFA2CFB2CFF2C6C1DFE2CFF2C032D53
:1009FE00FF30C007FF30C13D1F30CC000030CD00AE
:100A0E004101C901722DFF304001CC07FF30CD3DB1
:100A1E000A30A000A101A201A301A401A501A60113
:100A2E00A7014408A8004508A9004608AA004708DF
:100A3E00AB004808AC004908AD004A08AE004B08B0
:100A4E00AF0082319122843140012108F400200848
:100A5E00F3008E310A2684317308303E4001B8000F
:100A6E004C08AA3E8600870138088100FF30BE0779
:100A7E00FF30BF3DFF30C007FF30C13D0A30A00040
:100A8E00A101A201A301A401A501A601A701440889
:100A9E00A8004508A9004608AA004708AB00480868
:100AAE00AC004908AD004A08AE004B08AF008331D8
:100ABE007B23843140012008C4002108C500220890
:100ACE00C6002308C7002408C8002508C900260848
:100ADE00CA002708CB0040014D08803AB80080308C
:100AEE003802031D7C2D01304C02031C7F2D802DFE
:100AFE00AD2D40014408450446044704480449040A
:100B0E004A044B04031D8C2D8D2D0A2D3F08803A6F
:100B1E00B80080303802031D962D01303E020318B6
:100B2E00992D9A2D0A2D40014108803AB800803047
:100B3E003802031DA42D01304002031CA72DA82D41
:100B4E00AD2D4001EC18AC2DAD2D0A2D4001420803
:100B5E004304031DB32DB42DB82D6C1DB72DB82D28
:100B6E00D32DFF30CC07FF30CD3D42084304031D8B
:100B7E00C12DC22DC72D2B30BB000030BC00CB2D9C
:100B8E002D30BB000030BC003B08B8004C08AA3E1C
:100B9E0086008701380881004C08AA3EB800380844
:100BAE00A4004108A6004008A5003D088031392068
:100BBE00843140012508B1002408B00008008E31B0
:100BCE0024268531400118158F31742785310C305C
:100BDE0080318F20853102304001EB004530EA0034
:100BEE00A930890BF82DEA0BF82DEB0BF82D0032FE
:100BFE0040018D1E032E042E0C2E07304001EA00FC
:100C0E007D30890B082EEA0B082E40018D1A102E0E
:100C1E00112E3B2E0130EE070030EF3D0030E60086
:100C2E008830E7006F08E9006E08E800CA308E31A0
:100C3E004526853102304001EA006A08F300CA30C9
:100C4E00EB006B08F40001308E31912685310230B5
:100C5E004001EB004530EA00A930890B342EEA0B37
:100C6E00342EEB0B342E003240010C1D3F2E402E45
:100C7E005D2E2630E6008830E700CA308E314526DC
:100C8E00853102304001EA006A08F300CA30EB00F9
:100C9E006B08F40002308E3191268531A33040016D
:100CAE00EA005530890B592EEA0B592E14304001AB
:100CBE006E066F04031D642E652E822E2E30E60006
:100CCE008830E700CA308E3145268531023040012A
:100CDE00EA006A08F300CA30EB006B08F400023039
:100CEE008E3191268531A3304001EA005530890BB3
:100CFE007E2EEA0B7E2E1E3040016E066F04031D03
:100D0E00892E8A2EA72E3630E6008830E700CA30AC
:100D1E008E314526853102304001EA006A08F30023
:100D2E00CA30EB006B08F40002308E31912685310B
:100D3E00A3304001EA005530890BA32EEA0BA32EF7
:100D4E00283040016E066F04031DAE2EAF2ECC2E42
:100D5E003E30E6008830E700CA308E3145268531B8
:100D6E0002304001EA006A08F300CA30EB006B085B
:100D7E00F40002308E3191268531A3304001EA0015
:100D8E005530890BC82EEA0BC82E323040016E0644
:100D9E006F04031DD32ED42EF12E4630E60088307C
:100DAE00E700CA308E314526853102304001EA0017
:100DBE006A08F300CA30EB006B08F40002308E3183
:100DCE0091268531A3304001EA005530890BED2E76
:100DDE00EA0BED2E3C3040016E066F04031DF82E1B
:100DEE00F92E162F4E30E6008830E700CA308E31CD
:100DFE004526853102304001EA006A08F300CA3008
:100E0E00EB006B08F40002308E3191268531A33051
:100E1E004001EA005530890B122FEA0B122F463093
:100E2E0040016E066F04031D1D2F1E2F3B2F5630E3
:100E3E00E6008830E700CA308E3145268531023013
:100E4E004001EA006A08F300CA30EB006B08F400B8
:100E5E0002308E3191268531A3304001EA005530A3
:100E6E00890B372FEA0B372F503040016E066F0477
:100E7E00031D422F432F602F5E30E6008830E700BF
:100E8E00CA308E314526853102304001EA006A08AB
:100E9E00F300CA30EB006B08F40002308E3191265D
:100EAE008531A3304001EA005530890B5C2FEA0BE7
:100EBE005C2F5A3040016E066F04031D672F682F9A
:100ECE00852F6630E6008830E700CA308E31452621
:100EDE00853102304001EA006A08F300CA30EB00A7
:100EEE006B08F40002308E3191268531A33040011B
:100EFE00EA005530890B812FEA0B812F64304001B7
:100F0E006E066F04031D8C2F8D2FAA2F1530E60051
:100F1E008830E700CA308E314526853102304001D7
:100F2E00EA006A08F300CA30EB006B08F4000230E6
:100F3E008E3191268531A3304001EA005530890B60
:100F4E00A62FEA0BA62F40018C18AE2FAF2FB72F6E
:100F5E0007304001EA007D30890BB32FEA0BB32F27
:100F6E0040010C088C1EBC2FBD2FFF2DEE01EF0192
:100F7E004101A801A901013080318F208531023055
:100F8E004001EA006A08F3000B30F4008830F500E7
:100F9E0001308E31DA26853102304001EA006A08CE
:100FAE00F3001E30F4008830F50002308E31DA2660
:100FBE00853103304001EB008A30EA005530890B51
:100FCE00E62FEA0BE62FEB0BE62F0032FF2D8031DA
:100FDE0002284001EC01ED01EE01EF01A03084008A
:100FEE00003085003E308D31EB2587314001853153
:100FFE00E62D4C3469346D346F346E34653473348D
:10100E0020342534643400344C3469346D346F34F8
:10101E006E346534733420343034003450346134DB
:10102E0063346134733420343134303400347034EA
:10103E0061346334613473342034303400345034CA
:10104E0061346334613473342034313400345034B9
:10105E0061346334613473342034323400345034A8
:10106E006134633461347334203433340034503497
:10107E006134633461347334203434340034503486
:10108E006134633461347334203435340034503475
:10109E006134633461347334203436340034503464
:1010AE006134633461347334203437340034503453
:1010BE006134633461347334203438340034503442
:0E10CE006134633461347334203439340034B7
:101BD600640080010131890BEC2D0034F400740897
:101BE600F2007208F300FB2D0130F2007208F407D0
:101BF6007408860087010108031D022E032EF72DA7
:101C060073087402F000F101F01BF1030800740878
:101C1600803AF50080307502031D132E01307302E1
:101C26000318162E172E232E7309F5007409F600D5
:101C3600F50A0319F60A7508F3007608F400232E50
:101C460008004001980199019A0110309200A030D5
:101C56009300043094007E01CE01C301B801043024
:101C6600CF000430BA00C501D0013730BB00FF30C9
:101C7600C600FF30D1003F30BC00FF30C700FF3048
:101C8600D20008004101E1006830FD007D08E00057
:101C96006108FD007D08E200E301E401E501E601DB
:101CA60040016708DF006608DE00E030FD007D08C1
:101CB600E000E230803108208E314101630861077F
:101CC600FD007D0886008701810108004001A30010
:101CD600A101A201812E2008F900FA017908F0007D
:101CE6007A08F1007808FB007B08F2008F3125277F
:101CF6008E3101304001A1070030A23D21082307A3
:101D0600F9007908860087010108FA007A08A00020
:101D16002008031D8F2E902E6E2E0800F700AB2E86
:101D26007308803EF5007508F800C12E7308C03EA2
:101D3600F5007508F800C12E7308943EF500750885
:101D4600F800C12E7308D43EF5007508F800C12EC0
:101D56007708F500F6017608003A0319B32EC12E6E
:101D66007508013A0319932E033A0319992E013A7D
:101D760003199F2E073A0319A52EC12E7808803124
:101D86008F208E31D12E740886008701010881319B
:101D960021218E310130F5007508F407740886009C
:101DA60087010108031DD82ED92EC62E0800F8007B
:101DB600F42E7308803EF6007608F9000A2F7308A1
:101DC600C03EF6007608F9000A2F7308943EF60026
:101DD6007608F9000A2F7308D43EF6007608F90053
:101DE6000A2F7808F600F7017708003A0319FC2E47
:101DF6000A2F7608013A0319DC2E033A0319E22E5C
:101E0600013A0319E82E073A0319EE2E0A2F79082C
:101E160080318F208E311B2F740884007508850051
:101E26000008813121218E310130F4070030F53D63
:101E360074088400750885001200031D232F242FC3
:101E46000F2F080072080319292F2A2F2F2F720827
:101E5600031D2E2F2F2F342F7008803107208F312E
:101E6600732F7208033E86008701160001040319CA
:101E76003D2F3E2F5B2F7208033E86008701403FB1
:101E8600F300413FF400720A86008701403FF500E7
:101E9600413FF6007608803AF7007408803A7702E8
:101EA600031D572F7308750203185A2F5B2F732FC4
:101EB6007008F300720886008701720A84008501A3
:101EC60000080107F4007408860087017308810082
:101ED600720A860087010130810741310318810AA1
:101EE60008004001941314139412141213131312BE
:101EF6008E130E138E120E120D130D12C4300032F5
:101F06000032890B822F00320000C43000320032CA
:101F1600890B892F00320000C43000320032890B51
:101F2600902F00320000C43000320032890B972F08
:101F360000320000C43000320032890B9E2F00327E
:101F46000000C43000320032890BA52F0032000099
:101F5600F401F40A40018E130E138E160E160D139D
:101F66000D128E130E138E160E160D170D1200007F
:101F760040018E130E138E160E160D130D12C4305D
:101F860000320032890BC32F003200000130F3000B
:101F96007308F40704307402031CD22FD32FAD2F1D
:101FA60040018E130E138E160E120D130D128E1384
:101FB6000E138E160E120D170D12000040018E1311
:101FC6000E138E160E120D130D12C430003200328F
:101FD600890BE92F00320000283080318F208F31A5
:101FE600103080318F208F31013080318F208F313A
:0A1FF6000F3080318F208F3108007A
:020000040001F9
:04000E00ED3FE73F9C
:04001400FF3FFF3F6C
:00000001FF
